:020000040000FA
:100000000C945D000C9485000C9485000C94850084
:100010000C9485000C9485000C9485000C9485004C
:100020000C9485000C9485000C9485000C9485003C
:100030000C9485000C9485000C9485000C9485002C
:100040000C94D2030C9485000C9442040C941C0470
:100050000C9485000C9485000C9485000C9485000C
:100060000C9485000C9485000000000024002700FB
:100070002A0000000000250028002B0004040404CE
:100080000404040402020202020203030303030342
:10009000010204081020408001020408102001021F
:1000A00004081020000000080002010000030407FB
:1000B00000000000000000003A0711241FBECFEF2F
:1000C000D8E0DEBFCDBF11E0A0E0B1E0E8EAF3E1A7
:1000D00002C005900D92A636B107D9F722E0A6E638
:1000E000B1E001C01D92A632B207E1F710E0CDE504
:1000F000D0E004C02197FE010E94CC09CC35D10785
:10010000C9F70E9474040C94D2090C94000090E08A
:10011000FC01EC55FF4F2491FC01E057FF4F349157
:10012000FC01E458FF4FE491EE23C9F0222339F09B
:10013000233001F1A8F4213019F1223029F1F0E047
:10014000EE0FFF1FEE58FF4FA591B4918FB7F894B3
:10015000EC91611126C030953E233C938FBF0895EA
:100160002730A9F02830C9F0243049F78091800069
:100170008F7D03C0809180008F7780938000DFCFD8
:1001800084B58F7784BDDBCF84B58F7DFBCF809125
:10019000B0008F778093B000D2CF8091B0008F7D78
:1001A000F9CF3E2BDACFCF93DF9390E0FC01E057FD
:1001B000FF4F249184589F4FFC0184918823D1F0F4
:1001C00090E0880F991FFC01E859FF4FA591B49169
:1001D000FC01EE58FF4FC591D49161110EC09FB73D
:1001E000F8948C91E22FE0958E238C932881E22362
:1001F000E8839FBFDF91CF9108958FB7F894EC917A
:10020000E22BEC938FBFF6CF1F93CF93DF93182F82
:10021000EB0161E00E94D300209739F460E0812F68
:10022000DF91CF911F910C948700CF3FD10511F43E
:1002300061E0F5CFE12FF0E0EC55FF4FE491E330C2
:1002400031F140F4E130B1F0E230E1F0C038D105F5
:100250007CF7E4CFE73029F1E83059F1E430B1F729
:1002600080918000806280938000D0938B00C09347
:100270008A0004C084B5806884BDC7BDDF91CF917A
:100280001F91089584B5806284BDC8BDF7CF809169
:100290008000806880938000D0938900C09388009C
:1002A000EDCF8091B00080688093B000C093B30020
:1002B000E5CF8091B00080628093B000C093B4001D
:1002C000DDCF8E50806480937C0080917A008064C2
:1002D00080937A0080917A0086FDFCCF809178002F
:1002E0009091790008953FB7F8948091850190919D
:1002F0008601A0918701B091880126B5A89B05C011
:100300002F3F19F00196A11DB11D3FBFBA2FA92F94
:10031000982F8827BC01CD01620F711D811D911D91
:1003200042E0660F771F881F991F4A95D1F70895FD
:10033000AF92BF92CF92DF92EF92FF920F931F93F3
:10034000CF93DF936C017B018B01040F151FEB0131
:100350005E01AE18BF08C017D10759F06991D601E8
:10036000ED91FC910190F081E02DC6010995892B5A
:1003700079F7C501DF91CF911F910F91FF90EF9019
:10038000DF90CF90BF90AF900895FC01538D448DC6
:10039000252F30E0842F90E0821B930B541710F030
:1003A000CF96089501970895FC01918D828D98173D
:1003B00061F0A28DAE0FBF2FB11D5D968C91928D15
:1003C0009F5F9F73928F90E008958FEF9FEF089546
:1003D000FC01918D828D981731F0828DE80FF11D0F
:1003E000858D90E008958FEF9FEF0895FC01918D2A
:1003F000228D892F90E0805C9F4F821B91098F7323
:100400009927089589E891E00E94F60121E0892B5F
:1004100009F420E0822F089580E090E0892B29F0F4
:100420000E94020281110C9400000895FC01A48D29
:10043000A80FB92FB11DA35ABF4F2C91848D90E006
:1004400001968F739927848FA689B7892C93A089E9
:10045000B1898C91837080648C93938D848D981373
:1004600006C00288F389E02D80818F7D8083089506
:10047000EF92FF920F931F93CF93DF93EC0181E0F4
:10048000888F9B8D8C8D98131AC0E889F98980819B
:1004900085FF15C09FB7F894EE89FF896083E889CE
:1004A000F98980818370806480839FBF81E090E0C0
:1004B000DF91CF911F910F91FF90EF900895F62E4D
:1004C0000B8D10E00F5F1F4F0F731127E02E8C8DE7
:1004D0008E110CC00FB607FCFACFE889F98980812C
:1004E00085FFF5CFCE010E941602F1CFEB8DEC0F08
:1004F000FD2FF11DE35AFF4FF0829FB7F8940B8F49
:10050000EA89FB8980818062CFCFCF93DF93EC01B2
:10051000888D8823B9F0AA89BB89E889F9898C91EB
:1005200085FD03C0808186FD0DC00FB607FCF7CFA7
:100530008C9185FFF2CF808185FFEDCFCE010E94A7
:100540001602E9CFDF91CF910895FC0101900020C0
:10055000E9F73197AF01481B590BBC0189E891E0DD
:100560000C9498018F929F92AF92BF920F931F931A
:10057000CF93DF93CDB7DEB7A1970FB6F894DEBF68
:100580000FBECDBF19A2423008F44AE08E010F5DC4
:100590001F4F842E912CB12CA12CA50194010E94F7
:1005A000AA09E62FB901CA01EA30F4F4E05DD801E6
:1005B000EE938D01232B242B252B79F790E080E0FF
:1005C000109719F0CD010E94A502A1960FB6F894DC
:1005D000DEBF0FBECDBFDF91CF911F910F91BF90B6
:1005E000AF909F908F900895E95CE1CF4F925F921A
:1005F0006F927F928F929F92AF92BF92CF92DF9233
:10060000EF92FF920F931F93CF936B017C01742E97
:10061000AC019B010E94A509882399F082E191E039
:10062000CF911F910F91FF90EF90DF90CF90BF90EF
:10063000AF909F908F907F906F905F904F900C94B1
:10064000A50246015701E894B7F82FEF3FEF4FE7B7
:100650005FE7C501B4010E94A50981110DC02FEF0C
:100660003FEF4FE75FE7C501B4010E94D4071816BA
:100670001CF486E191E0D4CF2FEF3FEF4FE75FE42A
:10068000C701B6010E94330918161CF48AE191E0F3
:10069000C7CF2FEF3FEF4FE75FECC701B6010E94D6
:1006A000D40787FDF3CF20E030E0A901C701B601F0
:1006B0000E94D40710E000E087FF0AC06DE289E8DD
:1006C00091E00E9438028C01F7FAF094F7F8F09468
:1006D000C0E060E070E080E09FE37C1641F020E045
:1006E00030E040E251E40E94D907CF5FF6CFA70186
:1006F00096010E9468072B013C010E9452084B01A1
:100700005C014AE00E94B2027C01E00EF11ECC23A3
:10071000C1F1C501B4010E9481089B01AC01C30174
:10072000B2010E9467074B015C016EE289E891E02B
:100730000E943802E80EF91EC15018F120E030E0A6
:1007400040E251E4C501B4010E9438092B013C018B
:100750000E9452084B01B12CA12C4AE0C501B40102
:100760000E94B202E80EF91EC501B4010E94810880
:100770009B01AC01C301B2010E9467074B015C0100
:10078000DBCFC701CF911F910F91FF90EF90DF90CA
:10079000CF90BF90AF909F908F907F906F905F9021
:1007A0004F9008951F920F920FB60F9211242F931E
:1007B0003F938F939F93AF93BF93809181019091CB
:1007C0008201A0918301B09184013091800123E0E6
:1007D000230F2D3758F50196A11DB11D20938001DF
:1007E0008093810190938201A0938301B09384014F
:1007F0008091850190918601A0918701B091880137
:100800000196A11DB11D8093850190938601A0934F
:100810008701B0938801BF91AF919F918F913F91D4
:100820002F910F900FBE0F901F90189526E8230F61
:100830000296A11DB11DD2CF1F920F920FB60F923B
:1008400011242F933F934F935F936F937F938F93D5
:100850009F93AF93BF93EF93FF9389E891E00E943A
:100860001602FF91EF91BF91AF919F918F917F9170
:100870006F915F914F913F912F910F900FBE0F900D
:100880001F9018951F920F920FB60F9211242F935D
:100890008F939F93EF93FF93E0919901F0919A01C9
:1008A0008081E0919F01F091A00182FD1BC09081A9
:1008B0008091A2018F5F8F732091A301821741F075
:1008C000E091A201F0E0E757FE4F958F8093A201DF
:1008D000FF91EF919F918F912F910F900FBE0F90ED
:1008E0001F9018958081F4CFCF93DF93CDB7DEB7FB
:1008F00028970FB6F894DEBF0FBECDBF789484B5AD
:10090000826084BD84B5816084BD85B5826085BD0B
:1009100085B5816085BD80916E00816080936E0099
:10092000109281008091810082608093810080918B
:10093000810081608093810080918000816080933C
:1009400080008091B10084608093B1008091B000FC
:1009500081608093B00080917A00846080937A00F7
:1009600080917A00826080937A0080917A00816021
:1009700080937A0080917A00806880937A00109248
:10098000C10061E083E00E94D30061E085E00E9445
:10099000D30061E086E00E94D30061E089E00E941C
:1009A000D30061E08AE00E94D30061E08BE00E9406
:1009B000D30061E08CE00E94D30061E08DE00E94F2
:1009C000D30060E08EE00E94D30060E08FE00E94E0
:1009D000D300E0919901F0919A0182E08083E09147
:1009E0009501F09196011082E0919701F0919801A4
:1009F0008FEC80831092A101E0919D01F0919E0106
:100A000086E08083E0919B01F0919C018081806170
:100A10008083E0919B01F0919C01808188608083BC
:100A2000E0919B01F0919C01808180688083E0913E
:100A30009B01F0919C0180818F7D808320E0222E9C
:100A400020E0322E8EE00E9461019A838983909388
:100A50007F0180937E018FE00E9461018C012981DA
:100A60003A81B901330F880B990B0E94830820E06B
:100A700030EC4FE754E40E94D90720E030E040E238
:100A800051E40E94380920E030E040EA50E40E943E
:100A900067076B017C01C0927A01D0927B01E092E2
:100AA0007C01F0927D01B801110F880B990B0E9417
:100AB000830820E030EC4FE754E40E94D90720E09F
:100AC00030E040E251E40E94380920E030E040EAA2
:100AD00050E40E9467072B013C014092760150923E
:100AE00077016092780170927901A701960160E028
:100AF00070E0CB010E9467074B015C01A3019201EA
:100B000060E070E0CB010E9467076B017C012FE67B
:100B100032E143E85AE3C501B4010E94380920914B
:100B200072013091730140917401509175010E94DE
:100B300068072B013C014092720150927301609250
:100B400074017092750120916E0130916F01409196
:100B5000700150917101C501B4010E9467072FE631
:100B600032E143E85AE30E94D9072DEC3CEC4CE417
:100B70005DE30E94380969837A838B839C83A50196
:100B80009401C501B4010E9468076D837E838F8341
:100B900098872DEC3CEC4CEC5DE3C301B2010E9464
:100BA00038099B01AC016D817E818F8198850E94FF
:100BB00068079B01AC0169817A818B819C810E94CD
:100BC00068072B013C0180926E0190926F01A09208
:100BD0007001B09271012FE632E143E85AE3C70198
:100BE000B6010E94380920916A0130916B01409151
:100BF0006C0150916D010E9468074B015C0180926D
:100C00006A0190926B01A0926C01B0926D012091EB
:100C10006601309167014091680150916901C701F7
:100C2000B6010E9467072FE632E143E85AE30E94CB
:100C3000D9072DEC3CEC4CE45DE30E943809698354
:100C40007A838B839C83A7019601C701B6010E941A
:100C500068076D837E838F8398872DEC3CEC4CEC8A
:100C60005DE3C501B4010E9438099B01AC016D81AF
:100C70007E818F8198850E9468079B01AC01698104
:100C80007A818B819C810E9468074B015C01C09234
:100C90006601D0926701E0926801F092690120E05C
:100CA00030E04FE753E4C301B2010E94D90720E0CE
:100CB00030E04FE753E40E9438090E944B088B0153
:100CC0006F3F710519F014F00FEF10E017FF02C02D
:100CD00010E000E020E030E04FE753E4C301B20150
:100CE00090580E94D90720E030E04FE753E40E947B
:100CF00038090E944B087B016F3F710521F01CF001
:100D0000EE24EA94F12CF7FE02C0F12CE12C20E055
:100D100030E04FE753E4C501B4010E94D90720E059
:100D200030E04FE753E40E9438090E944B086B0102
:100D30008FEFC816D10421F01CF0CC24CA94D12C1A
:100D4000D7FE02C0D12CC12C20E030E04FE753E4A5
:100D5000C501B40190580E94D90720E030E04FE768
:100D600053E40E9438090E944B087A8369836F3FDD
:100D7000710529F024F08FEF90E09A83898329810F
:100D80003A8137FF02C01A821982B80183E00E94BB
:100D90000401B70185E00E940401B60186E00E94CB
:100DA000040169817A8189E00E940401B8018AE026
:100DB0000E940401B7018BE00E940401B6018CE09F
:100DC0000E94040169817A818DE00E9404018EE114
:100DD00091E00E94A50260917A0170917B0180915F
:100DE0007C0190917D0142E00E94F6028BE291E04D
:100DF0000E94A5026091760170917701809178013F
:100E00009091790142E00E94F6028AE391E00E940B
:100E1000A5028DE391E00E94A50242E0C301B20168
:100E20000E94F60280E591E00E94A50242E0C50121
:100E3000B4010E94F6028AE391E00E94A5020E949A
:100E400073016B017C010E9473016C197D098E098D
:100E50009F09683E734081059105A8F32114310470
:100E600009F4F0CD0E940202882309F4EBCD0E9420
:100E70000000E8CDE9E8F1E01382128288EE93E009
:100E8000A0E0B0E084839583A683B78384E091E0FB
:100E90009183808385EC90E09587848784EC90E053
:100EA0009787868780EC90E0918B808B81EC90E037
:100EB000938B828B82EC90E0958B848B86EC90E018
:100EC000978B868B118E128E138E148E0895505828
:100ED000BB27AA270E947F070C94F9080E94EB0801
:100EE00038F00E94F20820F039F49F3F19F426F4FC
:100EF0000C94E8080EF4E095E7FB0C94E208E92F67
:100F00000E940A0958F3BA17620773078407950706
:100F100020F079F4A6F50C942C090EF4E0950B2E34
:100F2000BA2FA02D0B01B90190010C01CA01A0013B
:100F30001124FF27591B99F0593F50F4503E68F196
:100F40001A16F040A22F232F342F4427585FF3CFD7
:100F5000469537952795A795F0405395C9F77EF4A8
:100F60001F16BA0B620B730B840BBAF09150A1F0F1
:100F7000FF0FBB1F661F771F881FC2F70EC0BA0F77
:100F8000621F731F841F48F4879577956795B795FF
:100F9000F7959E3F08F0B0CF9395880F08F09927FA
:100FA000EE0F9795879508950E94BE0808F481E09A
:100FB00008950E94ED070C94F9080E94F20858F079
:100FC0000E94EB0840F029F45F3F29F00C94E208FE
:100FD00051110C942D090C94E8080E940A0968F339
:100FE0009923B1F3552391F3951B550BBB27AA27E2
:100FF00062177307840738F09F5F5F4F220F331F1C
:10100000441FAA1FA9F335D00E2E3AF0E0E832D0E3
:1010100091505040E695001CCAF72BD0FE2F29D0E6
:10102000660F771F881FBB1F261737074807AB07B8
:10103000B0E809F0BB0B802DBF01FF2793585F4F2D
:101040003AF09E3F510578F00C94E2080C942D097B
:101050005F3FE4F3983ED4F3869577956795B7950F
:10106000F7959F5FC9F7880F911D9695879597F91A
:101070000895E1E0660F771F881FBB1F6217730793
:101080008407BA0720F0621B730B840BBA0BEE1FA8
:1010900088F7E09508950E9452086894B1110C9465
:1010A0002D0908950E94120988F09F5798F0B92FD2
:1010B0009927B751B0F0E1F0660F771F881F991F8D
:1010C0001AF0BA95C9F714C0B13091F00E942C09FA
:1010D000B1E008950C942C09672F782F8827B85F0A
:1010E00039F0B93FCCF3869577956795B395D9F7E5
:1010F0003EF490958095709561957F4F8F4F9F4FEF
:101100000895E89409C097FB3EF4909580957095FA
:1011100061957F4F8F4F9F4F9923A9F0F92F96E943
:10112000BB279395F695879577956795B795F111B8
:10113000F8CFFAF4BB0F11F460FF1BC06F5F7F4F55
:101140008F4F9F4F16C0882311F096E911C0772367
:1011500021F09EE8872F762F05C0662371F096E870
:10116000862F70E060E02AF09A95660F771F881F3F
:10117000DAF7880F9695879597F90895990F0008E3
:10118000550FAA0BE0E8FEEF16161706E807F90759
:10119000C0F012161306E407F50798F0621B730BF4
:1011A000840B950B39F40A2661F0232B242B252B75
:1011B00021F408950A2609F4A140A6958FEF811D18
:1011C000811D089597F99F6780E870E060E00895B9
:1011D0009FEF80EC089500240A941616170618064F
:1011E0000906089500240A9412161306140605062B
:1011F0000895092E0394000C11F4882352F0BB0FBC
:1012000040F4BF2B11F460FF04C06F5F7F4F8F4F1E
:101210009F4F089557FD9058440F551F59F05F3F59
:1012200071F04795880F97FB991F61F09F3F79F008
:1012300087950895121613061406551FF2CF46958A
:10124000F1DF08C0161617061806991FF1CF86950C
:101250007105610508940895E894BB2766277727F0
:10126000CB0197F908950E94BE0808F48FEF089506
:101270000E944B090C94F9080E94EB0838F00E9478
:10128000F20820F0952311F00C94E2080C94E80881
:1012900011240C942D090E940A0970F3959FC1F343
:1012A000950F50E0551F629FF001729FBB27F00D14
:1012B000B11D639FAA27F00DB11DAA1F649F662769
:1012C000B00DA11D661F829F2227B00DA11D621FB8
:1012D000739FB00DA11D621F839FA00D611D221F72
:1012E000749F3327A00D611D231F849F600D211D56
:1012F000822F762F6A2F11249F5750409AF0F1F0D9
:1013000088234AF0EE0FFF1FBB1F661F771F881F41
:1013100091505040A9F79E3F510580F00C94E2088F
:101320000C942D095F3FE4F3983ED4F386957795AE
:101330006795B795F795E7959F5FC1F7FE2B880FE7
:10134000911D9695879597F908950E94BE08880B80
:10135000990B0895A1E21A2EAA1BBB1BFD010DC01B
:10136000AA1FBB1FEE1FFF1FA217B307E407F50755
:1013700020F0A21BB30BE40BF50B661F771F881F31
:10138000991F1A9469F760957095809590959B01C7
:10139000AC01BD01CF010895EE0FFF1F0590F49140
:1013A000E02D0994F894FFCF000000003802980166
:1013B000C5018502F601D401E8016E616E00696E17
:1013C00066006F7666005820506F736974696F6E9F
:1013D0003A20002C205920506F736974696F6E3A5F
:1013E00020000D0A00436F6E74726F6C204F75748D
:1013F00070757420583A20002C20436F6E74726F01
:0E1400006C204F757470757420593A200000EE
:107E0000112484B714BE81FFF0D085E080938100F7
:107E100082E08093C00088E18093C10086E0809377
:107E2000C20080E18093C4008EE0C9D0259A86E02C
:107E300020E33CEF91E0309385002093840096BBD3
:107E4000B09BFECF1D9AA8958150A9F7CC24DD24C4
:107E500088248394B5E0AB2EA1E19A2EF3E0BF2EE7
:107E6000A2D0813461F49FD0082FAFD0023811F036
:107E7000013811F484E001C083E08DD089C08234E0
:107E800011F484E103C0853419F485E0A6D080C0E4
:107E9000853579F488D0E82EFF2485D0082F10E0AE
:107EA000102F00270E291F29000F111F8ED06801E7
:107EB0006FC0863521F484E090D080E0DECF843638
:107EC00009F040C070D06FD0082F6DD080E0C81688
:107ED00080E7D80618F4F601B7BEE895C0E0D1E017
:107EE00062D089930C17E1F7F0E0CF16F0E7DF06D8
:107EF00018F0F601B7BEE89568D007B600FCFDCFD4
:107F0000A601A0E0B1E02C9130E011968C91119780
:107F100090E0982F8827822B932B1296FA010C0160
:107F200087BEE89511244E5F5F4FF1E0A038BF0790
:107F300051F7F601A7BEE89507B600FCFDCF97BE46
:107F4000E89526C08437B1F42ED02DD0F82E2BD052
:107F50003CD0F601EF2C8F010F5F1F4F84911BD097
:107F6000EA94F801C1F70894C11CD11CFA94CF0C13
:107F7000D11C0EC0853739F428D08EE10CD085E9AC
:107F80000AD08FE07ACF813511F488E018D01DD067
:107F900080E101D065CF982F8091C00085FFFCCF94
:107FA0009093C60008958091C00087FFFCCF809118
:107FB000C00084FD01C0A8958091C6000895E0E648
:107FC000F0E098E1908380830895EDDF803219F02E
:107FD00088E0F5DFFFCF84E1DECF1F93182FE3DFCA
:107FE0001150E9F7F2DF1F91089580E0E8DFEE27F6
:047FF000FF270994CA
:027FFE00040479
:00000001FF
